{
  "contractName": "Lottery",
  "abi": [
    {
      "inputs": [],
      "stateMutability": "nonpayable",
      "type": "constructor"
    },
    {
      "inputs": [],
      "name": "manager",
      "outputs": [
        {
          "internalType": "address",
          "name": "",
          "type": "address"
        }
      ],
      "stateMutability": "view",
      "type": "function",
      "constant": true
    },
    {
      "inputs": [
        {
          "internalType": "uint256",
          "name": "",
          "type": "uint256"
        }
      ],
      "name": "players",
      "outputs": [
        {
          "internalType": "address payable",
          "name": "",
          "type": "address"
        }
      ],
      "stateMutability": "view",
      "type": "function",
      "constant": true
    },
    {
      "inputs": [],
      "name": "winner",
      "outputs": [
        {
          "internalType": "address payable",
          "name": "",
          "type": "address"
        }
      ],
      "stateMutability": "view",
      "type": "function",
      "constant": true
    },
    {
      "stateMutability": "payable",
      "type": "receive",
      "payable": true
    },
    {
      "inputs": [],
      "name": "getBalance",
      "outputs": [
        {
          "internalType": "uint256",
          "name": "",
          "type": "uint256"
        }
      ],
      "stateMutability": "view",
      "type": "function",
      "constant": true
    },
    {
      "inputs": [],
      "name": "pickWinner",
      "outputs": [],
      "stateMutability": "nonpayable",
      "type": "function"
    },
    {
      "inputs": [],
      "name": "allPlayers",
      "outputs": [
        {
          "internalType": "address payable[]",
          "name": "",
          "type": "address[]"
        }
      ],
      "stateMutability": "view",
      "type": "function",
      "constant": true
    }
  ],
  "bytecode": "0x608060405234801561001057600080fd5b5033600160006101000a81548173ffffffffffffffffffffffffffffffffffffffff021916908373ffffffffffffffffffffffffffffffffffffffff160217905550610b9a806100616000396000f3fe6080604052600436106100595760003560e01c806312065fe014610112578063481c6a751461013d5780635d495aea14610168578063b0ec80941461017f578063dfbf53ae146101aa578063f71d96cb146101d55761010d565b3661010d57670de0b6b3a764000034146100a8576040517f08c379a000000000000000000000000000000000000000000000000000000000815260040161009f90610746565b60405180910390fd5b6000339080600181540180825580915050600190039060005260206000200160009091909190916101000a81548173ffffffffffffffffffffffffffffffffffffffff021916908373ffffffffffffffffffffffffffffffffffffffff160217905550005b600080fd5b34801561011e57600080fd5b50610127610212565b604051610134919061077f565b60405180910390f35b34801561014957600080fd5b506101526102aa565b60405161015f91906107db565b60405180910390f35b34801561017457600080fd5b5061017d6102d0565b005b34801561018b57600080fd5b50610194610515565b6040516101a191906108c6565b60405180910390f35b3480156101b657600080fd5b506101bf6105a3565b6040516101cc91906108f7565b60405180910390f35b3480156101e157600080fd5b506101fc60048036038101906101f79190610943565b6105c9565b60405161020991906108f7565b60405180910390f35b6000600160009054906101000a900473ffffffffffffffffffffffffffffffffffffffff1673ffffffffffffffffffffffffffffffffffffffff163373ffffffffffffffffffffffffffffffffffffffff16146102a4576040517f08c379a000000000000000000000000000000000000000000000000000000000815260040161029b906109bc565b60405180910390fd5b47905090565b600160009054906101000a900473ffffffffffffffffffffffffffffffffffffffff1681565b600160009054906101000a900473ffffffffffffffffffffffffffffffffffffffff1673ffffffffffffffffffffffffffffffffffffffff163373ffffffffffffffffffffffffffffffffffffffff1614610360576040517f08c379a0000000000000000000000000000000000000000000000000000000008152600401610357906109bc565b60405180910390fd5b600360008054905010156103a9576040517f08c379a00000000000000000000000000000000000000000000000000000000081526004016103a090610a28565b60405180910390fd5b60006103b3610608565b905060008080549050826103c79190610a77565b9050600081815481106103dd576103dc610aa8565b5b9060005260206000200160009054906101000a900473ffffffffffffffffffffffffffffffffffffffff16600260006101000a81548173ffffffffffffffffffffffffffffffffffffffff021916908373ffffffffffffffffffffffffffffffffffffffff160217905550600260009054906101000a900473ffffffffffffffffffffffffffffffffffffffff1673ffffffffffffffffffffffffffffffffffffffff166108fc479081150290604051600060405180830381858888f193505050501580156104b0573d6000803e3d6000fd5b50600067ffffffffffffffff8111156104cc576104cb610ad7565b5b6040519080825280602002602001820160405280156104fa5781602001602082028036833780820191505090505b5060009080519060200190610510929190610642565b505050565b6060600080548060200260200160405190810160405280929190818152602001828054801561059957602002820191906000526020600020905b8160009054906101000a900473ffffffffffffffffffffffffffffffffffffffff1673ffffffffffffffffffffffffffffffffffffffff168152602001906001019080831161054f575b5050505050905090565b600260009054906101000a900473ffffffffffffffffffffffffffffffffffffffff1681565b600081815481106105d957600080fd5b906000526020600020016000915054906101000a900473ffffffffffffffffffffffffffffffffffffffff1681565b6000444260008054905060405160200161062493929190610b27565b6040516020818303038152906040528051906020012060001c905090565b8280548282559060005260206000209081019282156106bb579160200282015b828111156106ba5782518260006101000a81548173ffffffffffffffffffffffffffffffffffffffff021916908373ffffffffffffffffffffffffffffffffffffffff16021790555091602001919060010190610662565b5b5090506106c891906106cc565b5090565b5b808211156106e55760008160009055506001016106cd565b5090565b600082825260208201905092915050565b7f596f75206d7573742073656e6420312065746865720000000000000000000000600082015250565b60006107306015836106e9565b915061073b826106fa565b602082019050919050565b6000602082019050818103600083015261075f81610723565b9050919050565b6000819050919050565b61077981610766565b82525050565b60006020820190506107946000830184610770565b92915050565b600073ffffffffffffffffffffffffffffffffffffffff82169050919050565b60006107c58261079a565b9050919050565b6107d5816107ba565b82525050565b60006020820190506107f060008301846107cc565b92915050565b600081519050919050565b600082825260208201905092915050565b6000819050602082019050919050565b600061082d8261079a565b9050919050565b61083d81610822565b82525050565b600061084f8383610834565b60208301905092915050565b6000602082019050919050565b6000610873826107f6565b61087d8185610801565b935061088883610812565b8060005b838110156108b95781516108a08882610843565b97506108ab8361085b565b92505060018101905061088c565b5085935050505092915050565b600060208201905081810360008301526108e08184610868565b905092915050565b6108f181610822565b82525050565b600060208201905061090c60008301846108e8565b92915050565b600080fd5b61092081610766565b811461092b57600080fd5b50565b60008135905061093d81610917565b92915050565b60006020828403121561095957610958610912565b5b60006109678482850161092e565b91505092915050565b7f596f7520617265206e6f7420746865206d616e61676572000000000000000000600082015250565b60006109a66017836106e9565b91506109b182610970565b602082019050919050565b600060208201905081810360008301526109d581610999565b9050919050565b7f4e6f7420656e6f75676820706c61796572730000000000000000000000000000600082015250565b6000610a126012836106e9565b9150610a1d826109dc565b602082019050919050565b60006020820190508181036000830152610a4181610a05565b9050919050565b7f4e487b7100000000000000000000000000000000000000000000000000000000600052601260045260246000fd5b6000610a8282610766565b9150610a8d83610766565b925082610a9d57610a9c610a48565b5b828206905092915050565b7f4e487b7100000000000000000000000000000000000000000000000000000000600052603260045260246000fd5b7f4e487b7100000000000000000000000000000000000000000000000000000000600052604160045260246000fd5b6000819050919050565b610b21610b1c82610766565b610b06565b82525050565b6000610b338286610b10565b602082019150610b438285610b10565b602082019150610b538284610b10565b60208201915081905094935050505056fea26469706673582212202b31eb950b1568fd1bedca338fee7e932e94e7a4bcb193facefddcb044f62d0464736f6c634300080b0033",
  "immutableReferences": {},
  "source": "// SPDX-License-Identifier: GPL-3.0\r\n\r\npragma solidity >=0.7.0 <0.9.0;\r\n\r\ncontract Lottery {\r\n    address payable[] public players;\r\n    address public manager;\r\n    address payable public winner;\r\n\r\n    constructor() {\r\n        manager = msg.sender;\r\n    }\r\n\r\n    receive() external payable {\r\n        require(msg.value == 1 ether, \"You must send 1 ether\");\r\n        players.push(payable(msg.sender));\r\n    }\r\n\r\n    function getBalance() public view returns (uint256) {\r\n        require(msg.sender == manager, \"You are not the manager\");\r\n        return address(this).balance;\r\n    }\r\n\r\n    function random() private view returns (uint256) {\r\n        return\r\n            uint256(\r\n                keccak256(\r\n                    abi.encodePacked(\r\n                        block.difficulty,\r\n                        block.timestamp,\r\n                        players.length\r\n                    )\r\n                )\r\n            );\r\n    }\r\n\r\n    function pickWinner() public {\r\n        require(msg.sender == manager, \"You are not the manager\");\r\n        require(players.length >= 3, \"Not enough players\");\r\n\r\n        uint256 r = random();\r\n        uint256 index = r % players.length;\r\n        winner = players[index];\r\n        winner.transfer(address(this).balance);\r\n        players = new address payable[](0);\r\n    }\r\n\r\n    function allPlayers() public view returns (address payable[] memory) {\r\n        return players;\r\n    }\r\n}\r\n//0x248399B5d8a9481dFaDc465854F6a0D5a2318ae3\r\n//ganache 0x3649Bde268f21FfB8137AF98640E46651A0815Ab",
  "sourcePath": "X:\\DAPP\\lucky_draw\\contracts\\Lottery.sol",
  "compiler": {
    "name": "solc",
    "version": "0.8.11+commit.d7f03943.Emscripten.clang"
  },
  "schemaVersion": "3.4.11",
  "updatedAt": "2022-12-13T15:18:52.700Z",
  "networkType": "ethereum",
  "devdoc": {
    "kind": "dev",
    "methods": {},
    "version": 1
  },
  "userdoc": {
    "kind": "user",
    "methods": {},
    "version": 1
  }
}